:020000022000DC
:1070000000000420A53A0300E53A0300E73A030034
:10701000E93A0300EB3A0300ED3A030000000000F8
:10702000000000000000000000000000993903008B
:10703000F13A030000000000B9390300F53A0300FB
:10704000653C0300F73A0300F73A0300010B030025
:10705000B50B0300F73A030051140300F73A03009D
:10706000F73A0300F73A0300F73A0300F73A030050
:10707000F73A0300F73A0300F73A0300F73A030040
:10708000F73A0300E9360300F73A0300F73A030042
:10709000F73A0300F73A0300F73A0300F73A030020
:1070A000F73A0300F73A0300F73A0300F73A030010
:1070B000F73A0300F73A0300000000000000000068
:1070C000F73A0300F73A0300F73A0300F53E0300EE
:1070D000F73A0300F73A0300F73A030061AA020007
:1070E000F73A0300F73A0300F73A03000000000004
:1070F00000000000F73A0300000000006D3F0300AD
:10710000000000000000000000000000000000007F
:10711000000000000000000000000000000000006F
:10712000000000000000000000000000000000005F
:10713000000000000000000000000000000000004F
:10714000000000000000000000000000000000003F
:10715000000000000000000000000000000000002F
:10716000000000000000000000000000000000001F
:10717000000000000000000000000000000000000F
:1071800000000000000000000000000000000000FF
:1071900000000000000000000000000000000000EF
:1071A00000000000000000000000000000000000DF
:1071B00000000000000000000000000000000000CF
:1071C00000000000000000000000000000000000BF
:1071D00000000000000000000000000000000000AF
:1071E000000000000000000000000000000000009F
:1071F000000000000000000000000000000000008F
:10720000F1EE103A43F08073E1EE103A704700BFA0
:1072100010B5054C237833B9044B13B10448AFF3D0
:1072200000800123237010BD3463002000000000A3
:10723000CC7A030008B5034B1BB103490348AFF3F5
:10724000008008BD0000000038630020CC7A0300F5
:10725000154B002B08BF134B9D46A3F5803A002128
:107260008B460F461348144A121A0DF05BFE0F4B63
:10727000002B00D098470E4B002B00D098470020E1
:10728000002104000D000D48002802D00C48AFF387
:1072900000800DF0E3FD200029000CF05BFC0DF0F8
:1072A000C9FD00BF0000080000000420000000002D
:1072B0000000000034630020DC8500200000000096
:1072C00000000000704700BF2DE9F04307683B4C09
:1072D000DFF8F0803A4E85B00CF06CFC07EB47030A
:1072E00004EB8304A26823689A4228D02268A1682C
:1072F000A36818F837508A42CCBF01224FF0FF3202
:107300001344A3600F2DA0680BD805EB850306EB93
:1073100083024FEA8509117A19B116F82330212B1F
:1073200011D961684FF47A7200238802890D0DF03B
:10733000F1FB0BF09FFCA26823689A42D6D10A2089
:107340000BF098FCCEE780B2B0F5487F27D309EB6D
:10735000050306EB8303ADF80E0058605A8992B21C
:10736000904213D25A8992B24D4406EB85035A607B
:10737000197A0029D5D019690029D2D0186916F8D0
:107380002510D208002309F073FDCAE79A8992B24A
:1073900090428CBF9A89BDF80E2092B2E4E75389DF
:1073A0009289B42892B2009228BFB4209BB2B42232
:1073B00000210AF09DF880B2C9E700BFAC6400204C
:1073C0005063002004600020F0B503780F2B85B0D7
:1073D0000DD82C4D03EB830205EB82070446387A67
:1073E000920000F0FF0618B1AA5C212A03D90026FA
:1073F000304605B0F0BDB1F5487F32D303EB8303CF
:1074000005EB8303ADF80E105960207800EB800285
:1074100005EB820283005789BFB2B94218D2528964
:1074200092B2034405EB83035A60237803EB830392
:1074300005EB83019B00087A0028D9D00869002851
:10744000D6D00869E95CD208002309F011FDCFE726
:107450009789BFB2B9428CBF9289BDF80E2092B213
:10746000DFE77B89BA89B42928BFB42192B20846E4
:1074700000929BB20021B4220AF03AF8237881B23C
:10748000BCE700BF506300202DE9F04F0F4609789C
:10749000212983B058D8984690F840311B060446FD
:1074A000154657D494F840315BB20F2B4CDC237A4D
:1074B00003F0FF0A002B68D0237F002B00F0E08050
:1074C00094F83030002B00F0E78094F84430002B23
:1074D00000F0E68094F85830002B00F0E58094F836
:1074E0006C30002B00F0E48094F88030002B00F02A
:1074F000E38094F89430002B00F0E28094F8A830F8
:10750000002B00F0E18094F8BC30002B00F0E0800C
:1075100094F8D030002B00F0DF8094F8E430002B9A
:1075200000F0B28094F8F830002B00F0D98094F885
:107530000C31002B00F0D88094F820311BB394F864
:107540003431002B00F0A4804FF0FF3A504603B0D6
:10755000BDE8F08F0023184621464FF0FF0C03EBE7
:10756000830204EB82060133102B086048608860B8
:10757000C8600861307201F1140104F822C0EED134
:1075800084F840018EE74FF00E0AD3460BEB8B09CF
:1075900001213878564E0CF085FF04EB8903B8F8CA
:1075A000001099812988598100255D6094F8403147
:1075B0004FEA890201335BB201924E4A84F84031AE
:1075C0004FEA8B08B14659F8043BBFF35B8F5B6809
:1075D000BFF35B8F934242D00135042DF3D1454D6B
:1075E00056F8040B29464FF0000909F091FC58B9F0
:1075F00009F10109B9F1040FA6D056F8040B294688
:1076000009F086FC0028F3D0397856F8040C09F00C
:10761000BFFB0028ECD0364B08EB0B0204EB8202D8
:1076200053F829301361387801210CF03BFFD8441E
:10763000019A3B78A35404EB8808012388F80830AA
:10764000D8F8100040F6921109F094FBD8F8100019
:10765000072109F095FB504603B0BDE8F08F39785B
:1076600059F8040C09F094FB224A0028B4D0204AAF
:1076700008EB0B0304EB830352F825201A61D2E7D1
:107680004FF0010AD34681E74FF00B0AD3467DE75E
:107690004FF00F0AD34679E74FF0020AD34675E759
:1076A0004FF0030AD34671E74FF0040AD3466DE763
:1076B0004FF0050AD34669E74FF0060AD34665E75F
:1076C0004FF0070AD34661E74FF0080AD3465DE75B
:1076D0004FF0090AD34659E74FF00A0AD34655E757
:1076E0004FF00C0AD34651E74FF00D0AD3464DE751
:1076F0002C6100205365727610B52449244C25482E
:1077000009F0FAFC2D220F2322606360A26823682F
:107710009A4206D014200BF0ADFAA26823689A4270
:10772000F8D14FF433700BF0A5FA412219232260EF
:107730006360A26823689A4206D014200BF09AFA7C
:10774000A26823689A42F8D14FF480600BF092FA55
:107750000022082322606360A26823689A4206D050
:1077600014200BF087FAA26823689A42F8D140F2FD
:1077700033100BF07FFA0849064809F0BDFCBDE85C
:1077800010404FF480600BF075BA00BF50700300DA
:10779000AC640020C46400206870030038B53C4924
:1077A0003C4C3D4809F0A8FC0F255A239920236042
:1077B00065600BF05FFA4623E360256101E00BF0A2
:1077C00059FAA26823689A424FF01400F7D162690F
:1077D000E3689A42F3D140F299100BF04BFA0A2277
:1077E0000823E26023616269E3689A4206D01420AC
:1077F0000BF040FA6269E3689A42F8D14FF40070E6
:107800000BF038FA5A220F23E26023616269E368C1
:107810009A4206D014200BF02DFA6269E3689A426E
:10782000F8D140F233100BF025FA1C491A4809F040
:1078300063FC46220823E26023616269E3689A429E
:1078400006D014200BF016FA6269E3689A42F8D168
:107850006E220823E26023616269E3689A4206D0DF
:1078600014200BF007FA6269E3689A42F8D15A22B1
:107870000823E26023616269E3689A4206D014201B
:107880000BF0F8F96269E3689A42F8D138BD00BF9D
:1078900074700300AC640020C4640020887003008E
:1078A0002DE9F0433C493D4C3D4883B009F024FCB0
:1078B0005A220F2322606360E260236101E00BF033
:1078C000D9F9A26823689A424FF01400F7D162698F
:1078D000E3689A42F3D10BF095F8324FDFF8D49079
:1078E0002F4E804609E0304909F006FC5A220F234A
:1078F000E26023613D200BF0BDF90BF083F80346F5
:10790000A3EB0803B3F5005F384628D200F09EFED3
:107910000546384600F0E2FE034649463046002B55
:10792000E1D109F075FB0A222946304609F0C0FC76
:107930003B2D07D9B5F5967F1CD35A220F23E26061
:107940002361D7E71949304609F0D6FB0A22042300
:1079500040F29910E26023610BF08CF9CAE71449F8
:107960000F4809F0C9FB4FF4007003B0BDE8F043C5
:107970000BF080B982230093284646234FF4967279
:107980003C2109F0B5FDB428A8BFB42020EAE0707E
:107990000823E0602361ADE79C700300AC64002025
:1079A000C464002094640020D0700300FC700300C5
:1079B0000C710300F470030010B52E492E4C2F48B3
:1079C00009F09AFB5A200821822219232060616065
:1079D000E260236101E00BF04DF9A26823689A424E
:1079E0004FF01400F7D16269E3689A42F3D14FF483
:1079F00080600BF03FF92249204809F07DFB872287
:107A00000823E26023616269E3689A4206D0142089
:107A10000BF030F96269E3689A42F8D182220823B8
:107A2000E26023616269E3689A4206D014200BF099
:107A300021F96269E3689A42F8D14FF400700BF0C3
:107A400019F910490D4809F057FB14220023E26090
:107A500023616269E3689A4206D014200BF00AF9A8
:107A60006269E3689A42F8D1BDE8104040F23330D1
:107A70000BF000B92C710300AC640020C46400203A
:107A8000447103004C71030070B52049204C21481B
:107A900009F032FB2D22192322606360A26823685B
:107AA0009A4206D014200BF0E5F8A26823689A42A7
:107AB000F8D14FF4C0600BF0DDF8174800F0C6FDB8
:107AC0000646154800F00AFE054608B9952E15D958
:107AD0001249104809F010FB00221923226063604C
:107AE00002E014200BF0C6F8A26823689A42F8D18D
:107AF000BDE870404FF400700BF0BCB80849054871
:107B000009F0FAFA042325606360EDE7547103007D
:107B1000AC640020C46400209464002074710300ED
:107B200064710300F8B52649264C274809F0E4FAA9
:107B30000F235A214B2221606360E260236101E040
:107B40000BF098F8A26823689A424FF01400F7D11E
:107B50006269E3689A42F3D14FF400700BF08AF83F
:107B60001A49194809F0C8FA06255A270426E76079
:107B700026616269E3689A4206D014200BF07AF815
:107B80006269E3689A42F8D133200BF073F841231D
:107B9000E36026616269E3689A4206D014200BF024
:107BA00069F86269E3689A42F8D133200BF062F811
:107BB000013DDCD1BDE8F8404FF400700BF05AB83D
:107BC00088710300AC640020C46400209C71030031
:107BD00010B51B491B4C1C4809F08EFA5A2008218D
:107BE0008222042320606160E260236101E00BF0E7
:107BF00041F8A26823689A424FF01400F7D16269F5
:107C0000E3689A42F3D14FF4C0600BF033F80F49A8
:107C10000D4809F071FA00221923E2602361226005
:107C2000636001E00BF026F8A26823689A424FF0E7
:107C30001400F7D16269E3689A42F3D110BD00BF26
:107C4000A8710300AC640020C4640020C07103006C
:107C500010B52749274C284809F04EFA5A22192313
:107C600022606360E260236101E00BF003F8A26828
:107C700023689A424FF01400F7D16269E3689A4290
:107C8000F3D14FF400700AF0F5FF3C221923E260B3
:107C900023616269E3689A4206D014200AF0EAFF81
:107CA0006269E3689A42F8D178221923E26023617D
:107CB0006269E3689A4206D014200AF0DBFF626929
:107CC000E3689A42F8D15A221923E260236162697B
:107CD000E3689A4206D014200AF0CCFF6269E36898
:107CE0009A42F8D1BDE810404FF400700AF0C2BFCC
:107CF000D4710300AC640020C464002038B5264968
:107D0000264C274809F0F8F95A250F2399202560B9
:107D100063600AF0AFFF0823E560236101E00AF029
:107D2000A9FFA26823689A424FF01400F7D1626954
:107D3000E3689A42F3D140F299100AF09BFF962231
:107D40000823E26023616269E3689A4206D0142046
:107D50000AF090FF6269E3689A42F8D14FF400702C
:107D60000AF088FF00220F23E26023612260636033
:107D700001E00AF07FFFA26823689A424FF01400E6
:107D8000F7D16269E3689A42F3D1BDE8384005490A
:107D9000034809F0B1B900BF14720300AC640020BD
:107DA000C464002038720300F8B53449344C3548B7
:107DB00009F0A2F95A22082322606360E26023617D
:107DC00001E00AF057FFA26823689A424FF01400BE
:107DD000F7D16269E3689A42F3D140F299100AF050
:107DE00049FF032546270826E76026616269E368A4
:107DF0009A4206D014200AF03DFF6269E3689A4275
:107E0000F8D16E23E36026616269E3689A4206D086
:107E100014200AF02FFF6269E3689A42F8D1013D0D
:107E2000E2D15A220823E26023616269E3689A4240
:107E300006D014200AF01EFF6269E3689A42F8D166
:107E400040F233100AF016FF00220F232260636015
:107E5000E260236101E00AF00DFFA26823689A4204
:107E60004FF01400F7D16269E3689A42F3D1BDE89C
:107E7000F8400549034809F03FB900BF6C720300A0
:107E8000AC640020C46400208C720300A0F12303C2
:107E900010B5162B0DD8DFE803F0170C0C0C0C0CEA
:107EA0000C0C0C0C0C0C0C1B25292D3135393D41CB
:107EB000450004461D491E4809F0AAF821461C4801
:107EC000BDE8104009F068B9BDE81040FFF716BFE3
:107ED0001849174809F010F9BDE810404FF4C06088
:107EE0000AF0C8BEBDE81040FFF706BCBDE8104070
:107EF000FFF754BCBDE81040FFF7D2BCBDE810400E
:107F0000FFF75ABDBDE81040FFF7BEBDBDE8104009
:107F1000FFF708BEBDE81040FFF75ABEBDE81040AD
:107F2000FFF796BEBDE81040FFF73EBFA07203000A
:107F3000C4640020EC71030010B51F4C1F4920469B
:107F400009F0DAF81E49204609F0D6F81D49204606
:107F500009F0D2F81C49204609F0CEF81B4920460A
:107F600009F0CAF81A49204609F0C6F8194920460E
:107F700009F0C2F81849204609F0BEF81749204612
:107F800009F0BAF81649204609F0B6F81549204616
:107F900009F0B2F81449204609F0AEF8134920461A
:107FA00009F0AAF81249204609F0A6F8204611491E
:107FB000BDE8104009F02CB8C4640020BC72030076
:107FC000E472030020730300307303004473030062
:107FD0005073030068730300787303008073030019
:107FE0008C7303009C730300B0730300C47303001D
:107FF000E8730300107403002DE9F04F75498146C2
:1080000087B0754809F004F87348494609F02EF81E
:10801000D9F80830B3B1714CDFF8D4A1DFF8D4B18E
:1080200000252946484609F013FBA0F13003092B2F
:1080300006460ED9232855D1FFF728FF6849664820
:1080400009F05AF86749644807B0BDE8F04F09F0F5
:1080500053B8FFF71BFF232E02D1EFE70AF00AFE09
:10806000A26823689A424FF01400F7D16269E3686E
:108070009A42F3D14FF400700AF0FCFD9AF80060C8
:1080800000210F2E2160A1600DD8574F06EB86030B
:1080900007EB8308B200039298F808201AB117F88A
:1080A0002330212B59D99AF8086000210F2EE16066
:1080B00061610DD84C4F06EB860307EB8308B200D5
:1080C000039298F808201AB117F82330212B12D9FF
:1080D0004148594609F010F8D9F808300135AB424B
:1080E0009FD8AFE741493C4808F092FF31463A48F3
:1080F00009F052F8F0E7B8F80A30B8F80C2092B25C
:108100009BB200920846B42209F0F2F983B2C8F893
:108110000430B8F80A3080B29BB29842ADF816002D
:1081200053D3B8F80C309BB298428CBFB8F80C20EF
:10813000BDF8162092B2B300334407EB83077A6090
:108140003B7A002BC4D03B69002BC1D03869397809
:10815000D208002308F08CFEBAE7B8F80A30B8F865
:108160000C2092B29BB200920846B42209F0C0F9EA
:1081700083B2C8F80430B8F80A3080B29BB2984293
:10818000ADF816001DD3B8F80C309BB298428CBFE6
:10819000B8F80C20BDF8162092B2B300334407EBB8
:1081A00083077A603B7A002B3FF47DAF3B69002B5D
:1081B0003FF479AF38693978D208002308F058FEC7
:1081C00071E7B8F80A2092B2E7E7B8F80A2092B24D
:1081D000B1E700BF1C740300C4640020AC6400203D
:1081E00054740300A074030050630020347403002F
:1081F000046000207874030070B5634886B04FF4C3
:10820000E131054602F0A6F80524284602F0BAF846
:1082100003464FF480601BB90AF02CFD013CF4D1F9
:108220005A49594808F068FF05215948042208F0C6
:10823000B1FB574808F052FB56484FF4FA7301213E
:10824000438100F03DFE002800F085805148524DEA
:10825000002100F045F9002000904FF41670ADF8B1
:108260000A00291D4D4803AB0DF10A0240F62824EF
:10827000ADF80C40FFF708F9002828607ADB0023EE
:108280004FF416700093ADF80A00454943480DF1CC
:108290000A0240F6282403ABADF80C40FFF7F4F8CF
:1082A0000028A8605CDB00243E4E2B688DF80C3063
:1082B000214603A83460B460FFF786F8AB688DF8F8
:1082C0000C30214603A8F4607461FFF77DF80420A8
:1082D0000BF06EFC03460225CDE9005432491C60C8
:1082E0004FF4807231480AF09DF904200BF060FCD5
:1082F0000346CDE9005401251D604FF480722C49DE
:108300002A480AF08FF92B491F4808F0F5FE4FF470
:1083100000700AF0AFFC204642F20F7109F0DAF863
:108320000A22014603A809F00BF9234903A809F022
:1083300043F92249144808F06BFE03A9124808F0DB
:1083400095FE03A8FFF758FEFFF7F6FD03A809F016
:108350002BF906B070BD1A490B4808F0CDFE75E741
:108360001849094808F054FE297B07480A2208F0FA
:10837000C5FF98E71349044808F04AFE29790248E6
:108380000A2208F0BBFF7AE7C4640020B47403003B
:108390007479002094640020046000205063002061
:1083A00010600020AC64002028750300C972020030
:1083B00030750300387503006C7503007075030099
:1083C000E07403000875030008B50648064A07492B
:1083D000FF2380F840310CF053F9BDE80840044811
:1083E00000F028B85063002000600020C572020031
:1083F0009464002000B50E4885B001F0CBFD002844
:108400000FDD0B490A2201A808F0ECFF01A809F0D2
:1084100029F901A8FFF7F0FDFFF78EFD01A809F08B
:10842000C3F833200AF026FC05B05DF804FB00BF5A
:10843000C4640020034A4260292100220172428163
:10844000027370477479002070B504460E46017AB5
:108450004068154608F0E8FA6068036831461B6812
:10846000984760680368290E1B689847606803682E
:10847000C5F307411B68984760680368C5F3072187
:108480001B68984760680368E9B21B689847606892
:1084900008F032FB207070BD38B504460D464068C8
:1084A000217A08F0C1FA6068036829461B6898477A
:1084B000606808F021FB217A20700222606808F0D1
:1084C00073FA606803681B6998470346606802682E
:1084D00012691C46904740EA042080B238BD00BFB4
:1084E00070B504460D464068217A08F09DFA606830
:1084F000036880211B6898476068036801211B6836
:108500009847606808F0F8FA217A2070606808F0EF
:108510008BFA60680368FF211B68984760680368EE
:1085200001211B689847606808F0E6FA217A2070FC
:10853000606808F079FA6068036800211B68984752
:108540006068036800211B689847606808F0D4FAE7
:10855000217A20706068267C08F066FA60680368FB
:1085600091211B6898476068036831461B689847EB
:10857000606808F0C1FA217A2070606808F054FA47
:108580006068036800211B689847606803680121E0
:108590001B689847606808F0AFFA217A207060681D
:1085A00008F042FA60680368FF211B68984760681A
:1085B000036800211B689847606808F09DFA217ADB
:1085C0002070606808F030FA6068036880211B68DA
:1085D00098476068036800211B689847606808F046
:1085E0008BFA2070F5B1F8212046FFF755FF08B14E
:1085F00000FB05F52A4604212046FFF725FF217AD6
:10860000606808F011FA6068036800211B689847E9
:108610006068036804211B689847606808F06CFA7A
:10862000207070BD217A606808F0FEF96068036808
:1086300029461B6898476068036802211B689847B1
:10864000606808F059FA207070BD00BF38B5044664
:1086500009F032F8E08102E06389002B30D1217A01
:10866000606808F0E1F96068036813211B689847A7
:10867000606808F041FA217A20700122606808F0F1
:1086800093F9606803681B6998474307E4D01E218B
:108690002046FFF701FF217A0546606808F0C4F91B
:1086A000606803680B211B689847606803680121B4
:1086B0001B689847606808F01FFA2070284638BD8C
:1086C00008F0FAFFE3896289C01A83B29A42C6D2DF
:1086D000012323734FF6FF75F0E700BF0346002226
:1086E000007B1A73704700BFF8B504460F46017A45
:1086F0004068164608F098F96068036880211B6896
:1087000098476068036801211B689847606808F013
:10871000F3F9217A2070606808F086F960680368D0
:10872000FF211B6898476068036801211B68984710
:10873000606808F0E1F9217A2070606808F074F947
:108740006068036800211B6898476068036800211F
:108750001B689847606808F0CFF9217A207060683C
:1087600008F062F960680368FF211B689847606839
:10877000036806211B689847606808F0BDF9217AF4
:108780002070606808F050F96068036883211B68F6
:108790009847606808F0B0F90122217A207060687B
:1087A00008F002F9606803681B699847217A05465A
:1087B000606808F039F96068036883211B6898478E
:1087C0006068036845F004011B68C9B29847606897
:1087D00008F092F9217A2070606808F025F9606845
:1087E0000368FF211B6898476068036807211B68BE
:1087F0009847606808F080F9217A2070606808F076
:1088000013F96068036881211B68984760680368F2
:1088100001211B689847606808F06EF9217A207082
:10882000606808F001F96068036880211B68984758
:108830006068036801211B689847606808F05CF96C
:10884000217A2070606808F0EFF86068036894216E
:108850001B689847606803686B211B6898476068CD
:1088600008F04AF9217A2070606808F0DDF8606845
:10887000036883211B6898476068036800211B68B0
:108880009847606808F038F9207008F015FFE0811B
:1088900003E06389002B40F0DF80217A606808F0F4
:1088A000C3F86068036883211B689847606808F014
:1088B00023F9217A20700122606808F075F8606859
:1088C00003681B69984710F0FF05E2D0217A6068C1
:1088D00008F0AAF86068036883211B6898476068FD
:1088E000036801211B689847606808F005F9217A40
:1088F0002070606808F098F86068036892211B682F
:108900009847606808F0F8F80122217A20706068C2
:1089100008F04AF8606803681B69984700F07F0315
:10892000C0F3C0103B703070217A606808F07CF8AA
:108930006068036881211B689847606803680021AC
:108940001B689847606808F0D7F8217A2070606843
:1089500008F06AF860680368FF211B689847606840
:10896000036806211B689847606808F0C5F8217AFB
:108970002070606808F058F86068036883211B68FD
:108980009847606808F0B8F80122217A2070606882
:1089900008F00AF8606803681B699847217A054661
:1089A000606808F041F86068036883211B68984795
:1089B0006068036805F0FB011B689847606808F071
:1089C0009BF8217A2070606808F02EF860680368D0
:1089D000FF211B6898476068036801211B6898475E
:1089E000606808F089F8217A2070606808F01CF847
:1089F0006068036800211B6898476068036801216C
:108A00001B689847606808F077F8217A20706068E2
:108A100008F00AF860680368FF211B6898476068DF
:108A2000036800211B689847606808F065F8217AA0
:108A30002070606807F0F8FF6068036880211B6899
:108A400098476068036800211B689847606808F0D1
:108A500053F820700120F8BD08F02EFEE3896289EA
:108A6000C01A83B29A42BFF418AF2846F8BD00BFBF
:108A70002DE9F04104460F46017A40684F4EDFF879
:108A80004081154607F0D0FF6068036850211B68DD
:108A90009847606808F030F80122217A20706068F9
:108AA00007F082FF606803681B6998470130400047
:108AB000C0B22880217A606807F0B6FF606803685A
:108AC00046211B689847606808F016F80122217A51
:108AD0002070606807F068FF606803681B6998474A
:108AE0002B7806FB03F303F5FA73A8FB0323C0B24C
:108AF00001309B0900FB03F303F5FA73A8FB032382
:108B00009B09A880EB6051212046FFF7C5FC2B781C
:108B10000146CAB206FB03F3C1F30F218A4003F5F5
:108B2000FA73A8FB0313013292B29B0902FB03F311
:108B300003F5FA73A8FB03139B096068EA802B61B5
:108B4000217A07F071FF6068036870211B689847FD
:108B5000606807F0D1FF0122217A2070606807F079
:108B600023FF606803681B69984701304000C0B26A
:108B7000688071212046FFF78FFCC3B2C0F30F203D
:108B80008340FA7801339BB22B811AB1EA889B1A91
:108B90009BB22B81A878094A094902FB00F202F531
:108BA000FA72A1FB0202920903FB02F303F5FA73C6
:108BB000A1FB03239B096B61BDE8F081002F3A0004
:108BC000D34D621030B5044689B0017A406807F091
:108BD0002BFF6068036801211B689847606807F0F5
:108BE0008BFF217A20700122606807F0DDFE60684B
:108BF00003681B6998470346C0F30015C3F3C0021E
:108C0000C3F380018DF800508DF80220C3F3801566
:108C10008DF80110C3F3C013204602AA69468DF8EF
:108C200004308DF80350FFF723FF9DF8003023B385
:108C3000059800F684509DF80230ABB1059B03F215
:108C4000B22300EB43009DF803301BB1069B03F5F4
:108C5000257318449DF804301BB1079B03F22623AB
:108C60001844606109B030BD9DF80130002BEAD096
:108C7000059B03F525731844E5E740F63630DAE73F
:108C80002DE9F041044688B040680E46217A07F08D
:108C9000CBFE6068036801211B689847606807F095
:108CA0002BFF217A20700122606807F07DFE60684A
:108CB00003681B6998470346C0F30012C3F3C00161
:108CC0008DF800208DF80210C3F38002C3F38011E9
:108CD0008DF80120C3F3C0138DF80310204602AABB
:108CE00069468DF80430FFF7C3FE9DF80030002B75
:108CF00045D0059B9DF8022003F68453002A44D0FA
:108D0000059A02F2B22203EB42039DF8031019B157
:108D1000069A02F5257213449DF80470002F3DD089
:108D200003F22623B3423ED89DF80A502F4A30481A
:108D300002FB05F202F5FA72A0FB0202D0094FF421
:108D40007A75F31A920905FB0303B3FBF2F511B12F
:108D5000BDF80E2015445DB36B1E33F0FF0509D03E
:108D600000225B08013223F0FF0192B20029F8D102
:108D70001502ADB22B43C3F30728DDB219E09DF80D
:108D8000022040F63633002ABAD19DF80120002A8D
:108D9000BBD0059A02F525721344B6E70127384681
:108DA00008B0BDE8F0810027384608B0BDE8F08182
:108DB000A846217A606807F037FE60680368712171
:108DC0001B6898476068036841461B68984760685D
:108DD000036829461B689847606807F08DFE20707D
:108DE0003846666108B0BDE8F08100BF002F3A0048
:108DF000D34D621038B504460D464068217A07F01D
:108E000013FE6068036800211B6898476068036868
:108E100045F001011B689847606807F06DFE2070FF
:108E200008F04AFCE08102E06389002B3ED1217A00
:108E3000606807F0F9FD6068036813211B689847B4
:108E4000606807F059FE217A20700122606807F0FF
:108E5000ABFD606803681B69984710F00705E3D015
:108E6000217A606807F0E0FD606803680B211B68E9
:108E700098476068036801211B689847606807F09D
:108E80003BFE217A2070606807F0CEFD60680368C1
:108E900000211B6898476068036800211B68984799
:108EA000606807F029FE2070012038BD08F004FC3E
:108EB000E3896289C01A83B29A42B8D2284638BD83
:108EC0002DE9F041044684B040680D46217A07F050
:108ED000ABFD60680368C0211B689847606807F0B5
:108EE0000BFE217A20700122606807F05DFD60684A
:108EF00003681B699847C0B2EE2840F0F480002D4B
:108F000041F00480217A606807F08EFD6068036894
:108F100088211B6898476068036800211B68984790
:108F2000606807F0E9FD217A2070606807F07CFD39
:108F30006068036880211B689847606803680121A6
:108F40001B689847606807F0D7FD217A2070606839
:108F500007F06AFD60680368FF211B689847606836
:108F6000036801211B689847606807F0C5FD217AF6
:108F70002070606807F058FD6068036800211B6876
:108F800098476068036800211B689847606807F08D
:108F9000B3FD217A2070606807F046FD60680368C1
:108FA00091211B689847606807F0A6FD0122217A8D
:108FB0002070606807F0F8FC606803681B699847D8
:108FC000217A2074606807F02FFD60680368002133
:108FD0001B6898476068036801211B6898476068B0
:108FE00007F08AFD217A2070606807F01DFD606837
:108FF0000368FF211B6898476068036800211B68AD
:109000009847606807F078FD217A2070606807F063
:109010000BFD6068036880211B68984760680368DF
:1090200000211B689847606807F066FD217A207070
:10903000606807F0F9FC6068036860211B68984766
:10904000606807F059FD0122217A2070606807F0FE
:10905000ABFC606803681B699847217A0546606825
:1090600007F0E2FC6068036860211B68984760684D
:10907000036845F012011B68C9B29847606807F0A1
:109080003BFD217A2070606807F0CEFC60680368C1
:1090900044211B6898476068036800211B68984753
:1090A0006068036820211B689847606807F024FD0A
:1090B000217A2070606807F0B7FC606803680121BE
:1090C0001B68984760680368FF211B6898476068C1
:1090D00007F012FD0DF1070220700DF10601204688
:1090E000FFF702FB20B90025284604B0BDE8F08157
:1090F000217A606807F098FC60680368B0211B68FB
:109100009847606807F0F8FC217A207006226068B2
:1091100007F04AFC02AE0DF10E05606803681B699A
:10912000984706F8010BAE42F7D1217A606807F044
:109130007BFC60680368FF211B68984760680368D0
:1091400001211B689847606807F0D6FC217A2070DF
:10915000606807F069FC606803684F211B689847E6
:109160006068036800211B689847606807F0C4FCCA
:10917000217A2070606807F057FC606803684E2110
:109180001B689847606803682C211B6898476068D3
:1091900007F0B2FC217A2070606807F045FC606837
:1091A0000368FF211B6898476068036800211B68FB
:1091B0009847606807F0A0FC217A2070606807F08B
:1091C00033FC60680368B6211B68984760680368D1
:1091D000B4211B689847606807F08EFC9DF8073043
:1091E0009DF806E02070002B4FF0000214BF4FF0F6
:1091F0000C0C94461646012710E0B64503F0070311
:1092000016D010F8081C41FA03F3DB0748BF0136FB
:1092100002F1010248BFF6B2302A12D0D3B204A93B
:1092200001EBD300634503F0070107FA01F1E4D233
:1092300010F8083C013223EA0101302A00F8081C2A
:10924000ECD1217A606807F0EFFB60680368B02119
:109250001B68984702AE606816F8011B03681B681C
:109260009847AE42F7D1606807F046FC217A20703B
:10927000606807F0D9FB60680368FF211B689847A6
:109280006068036801211B689847606807F034FC38
:10929000217A2070606807F0C7FB606803680021CE
:1092A0001B6898476068036800211B6898476068DE
:1092B00007F022FC217A2070606807F0B5FB606837
:1092C0000368FF211B6898476068036800211B68DA
:1092D0009847606807F010FC217A2070606807F0FA
:1092E000A3FB6068036809211B68984760680368EE
:1092F00000211B689847606807F0FEFB217A207008
:10930000606807F091FB6068036810211B6898474C
:109310006068036800211B689847606807F0ECFBF1
:10932000217A2070606807F07FFB60680368112174
:109330001B6898476068036800211B68984760684D
:1093400007F0DAFB217A2070606807F06DFB606837
:10935000036824211B6898476068036801211B6823
:109360009847606807F0C8FB217A2070606807F0B2
:109370005BFB6068036825211B6898476068036889
:10938000FF211B689847606807F0B6FB217A2070C0
:10939000606807F049FB6068036875211B6898479F
:1093A0006068036800211B689847606807F0A4FBA9
:1093B000217A2070606807F037FB60680368FF213E
:1093C0001B6898476068036801211B6898476068BC
:1093D00007F092FB217A2070606807F025FB606837
:1093E00003684E211B689847606803682C211B683E
:1093F0009847606807F080FB217A2070606807F06A
:1094000013FB6068036848211B689847606803681D
:1094100000211B689847606807F06EFB217A207076
:10942000606807F001FB6068036830211B6898479B
:109430006068036820211B689847606807F05CFB40
:10944000217A2070606807F0EFFA60680368FF21F6
:109450001B6898476068036800211B68984760682C
:1094600007F04AFB217A2070606807F0DDFA606837
:10947000036830211B6898476068036809211B68EE
:109480009847606807F038FB217A2070606807F021
:10949000CBFA6068036854211B68984760680368CA
:1094A00000211B689847606807F026FB217A20702E
:1094B000606807F0B9FA6068036831211B68984753
:1094C0006068036804211B689847606807F014FB14
:1094D000217A2070606807F0A7FA6068036832217B
:1094E0001B6898476068036803211B689847606899
:1094F00007F002FB217A2070606807F095FA606837
:10950000036840211B6898476068036883211B68D3
:109510009847606807F0F0FA217A2070606807F0D9
:1095200083FA6068036846211B689847606803688F
:1095300025211B689847606807F0DEFA217A2070C1
:10954000606807F071FA6068036860211B689847DB
:109550006068036800211B689847606807F0CCFAD0
:10956000217A2070606807F05FFA6068036827213D
:109570001B6898476068036800211B68984760680B
:1095800007F0BAFA217A2070606807F04DFA606837
:10959000036850211B6898476068036806211B68B0
:1095A0009847606807F0A8FA217A2070606807F091
:1095B0003BFA6068036851211B689847606803683C
:1095C00000211B689847606807F096FA217A20709E
:1095D000606807F029FA6068036852211B689847A1
:1095E0006068036896211B689847606807F084FAF2
:1095F000217A2070606807F017FA606803685621C6
:109600001B6898476068036808211B689847606872
:1096100007F072FA217A2070606807F005FA606836
:10962000036857211B6898476068036830211B68EE
:109630009847606807F060FA217A2070606807F048
:10964000F3F96068036861211B68984760680368E4
:1096500000211B689847606807F04EFA217A207055
:10966000606807F0E1F96068036862211B68984749
:109670006068036800211B689847606807F03CFA3F
:10968000217A2070606807F0CFF960680368642170
:109690001B6898476068036800211B6898476068EA
:1096A00007F02AFA217A2070606807F0BDF9606837
:1096B000036865211B6898476068036800211B6880
:1096C0009847606807F018FA217A2070606807F000
:1096D000ABF96068036866211B6898476068036897
:1096E000A0211B689847606807F006FA217A20706D
:1096F000606807F099F960680368FF211B68984764
:109700006068036801211B689847606807F0F4F9F6
:10971000217A2070606807F087F960680368222169
:109720001B6898476068036832211B689847606827
:1097300007F0E2F9217A2070606807F075F9606837
:10974000036847211B6898476068036814211B68F9
:109750009847606807F0D0F9217A2070606807F0B8
:1097600063F96068036849211B689847606803686B
:10977000FF211B689847606807F0BEF9217A2070C6
:10978000606807F051F9606803684A211B689847D0
:109790006068036800211B689847606807F0ACF9AF
:1097A000217A2070606807F03FF960680368FF2144
:1097B0001B6898476068036800211B6898476068C9
:1097C00007F09AF9217A2070606807F02DF9606837
:1097D00003687A211B689847606803680A211B6840
:1097E0009847606807F088F9217A2070606807F070
:1097F0001BF9606803687B211B68984760680368F1
:1098000000211B689847606807F076F9217A20707C
:10981000606807F009F96068036878211B68984759
:109820006068036821211B689847606807F064F945
:10983000217A2070606807F0F7F860680368FF21FC
:109840001B6898476068036801211B689847606837
:1098500007F052F9217A2070606807F0E5F8606837
:10986000036823211B6898476068036834211B68DC
:109870009847606807F040F9217A2070606807F027
:10988000D3F86068036842211B68984760680368E2
:1098900000211B689847606807F02EF9217A207034
:1098A000606807F0C1F86068036844211B68984746
:1098B00060680368FF211B689847606807F01CF91F
:1098C000217A2070606807F0AFF86068036845216E
:1098D0001B6898476068036826211B689847606882
:1098E00007F00AF9217A2070606807F09DF8606837
:1098F000036846211B6898476068036805211B6858
:109900009847606807F0F8F8217A2070606807F0DF
:109910008BF86068036840211B689847606803689B
:1099200040211B689847606807F0E6F8217A2070AC
:10993000606807F079F8606803680E211B68984733
:109940006068036806211B689847606807F0D4F8D0
:10995000217A2070606807F067F86068036820214A
:109960001B689847606803681A211B6898476068FD
:1099700007F0C2F8217A2070606807F055F8606837
:10998000036843211B6898476068036840211B688F
:109990009847606807F0B0F8217A2070606807F097
:1099A00043F860680368FF211B6898476068036894
:1099B00000211B689847606807F09EF8217A2070A4
:1099C000606807F031F86068036834211B689847C5
:1099D0006068036803211B689847606807F08CF88B
:1099E000217A2070606807F01FF8606803683521ED
:1099F0001B6898476068036844211B689847606843
:109A000007F07AF8217A2070606807F00DF8606836
:109A10000368FF211B6898476068036801211B6881
:109A20009847606807F068F8217A2070606806F04F
:109A3000FBFF6068036831211B6898476068036812
:109A400004211B689847606807F056F8217A207057
:109A5000606806F0E9FF606803684B211B6898475F
:109A60006068036809211B689847606807F044F83C
:109A7000217A2070606806F0D7FF606803684C2187
:109A80001B6898476068036805211B6898476068F1
:109A900007F032F8217A2070606806F0C5FF606830
:109AA00003684D211B6898476068036804211B68A0
:109AB0009847606807F020F8217A2070606806F007
:109AC000B3FF60680368FF211B68984760680368FC
:109AD00000211B689847606807F00EF8217A207013
:109AE000606806F0A1FF6068036844211B6898471E
:109AF0006068036800211B689847606806F0FCFFF7
:109B0000217A2070606806F08FFF60680368452145
:109B10001B6898476068036820211B689847606845
:109B200006F0EAFF217A2070606806F07DFF606829
:109B3000036847211B6898476068036808211B6811
:109B40009847606806F0D8FF217A2070606806F0B8
:109B50006BFF6068036848211B689847606803686A
:109B600028211B689847606806F0C6FF217A20709C
:109B7000606806F059FF6068036867211B689847B2
:109B80006068036800211B689847606806F0B4FFAE
:109B9000217A2070606806F047FF606803687021D2
:109BA0001B6898476068036804211B6898476068D1
:109BB00006F0A2FF217A2070606806F035FF606829
:109BC000036871211B6898476068036801211B685E
:109BD0009847606806F090FF217A2070606806F070
:109BE00023FF6068036872211B68984760680368F8
:109BF000FE211B689847606806F07EFF217A20707E
:109C0000606806F011FF6068036876211B6898475A
:109C10006068036800211B689847606806F06CFF65
:109C2000217A2070606806F0FFFE60680368772183
:109C30001B6898476068036800211B689847606844
:109C400006F05AFF217A2070606806F0EDFE606829
:109C50000368FF211B6898476068036801211B683F
:109C60009847606806F048FF217A2070606806F027
:109C7000DBFE606803680D211B6898476068036815
:109C800001211B689847606806F036FF217A207032
:109C9000606806F0C9FE60680368FF211B6898478A
:109CA0006068036800211B689847606806F024FF1D
:109CB000217A2070606806F0B7FE60680368802132
:109CC0001B6898476068036801211B6898476068B3
:109CD00006F012FF217A2070606806F0A5FE606829
:109CE000036801211B68984760680368F8211B68B6
:109CF0009847606806F000FF217A2070606806F0DF
:109D000093FE60680368FF211B68984760680368DA
:109D100001211B689847606806F0EEFE217A2070EA
:109D2000606806F081FE606803688E211B689847B2
:109D30006068036801211B689847606806F0DCFED4
:109D4000217A2070606806F06FFE60680368002169
:109D50001B6898476068036801211B689847606822
:109D600006F0CAFE217A2070606806F05DFE606829
:109D70000368FF211B6898476068036800211B681F
:109D80009847606806F0B8FE217A2070606806F097
:109D90004BFE6068036880211B6898476068036811
:109DA00000211B689847606806F0A6FE217A2070A3
:109DB000606806F039FE606803680A211B689847EE
:109DC0006068036804211B689847606806F094FE89
:109DD000217A2070606806F027FE6068036884219D
:109DE0001B689847606806F087FE0122217A207080
:109DF000606806F0D9FD606803681B699847217A9E
:109E00000546606806F010FE6068036884211B68E0
:109E100098476068036805F0EF011B689847606821
:109E200006F06AFE217A2070606806F0FDFD606829
:109E300003680B211B6898476068036801211B6851
:109E40009847606806F058FE20702046FEF7BAFE7C
:109E5000217A6061606806F0E7FD606803680121AF
:109E60001B68984760680368E8211B68984760682A
:109E700006F042FE616920702046FEF701FF217A5C
:109E8000606806F0D1FD6068036801211B6898478F
:109E90006068036801211B689847606806F02CFE23
:109EA000402120702046FEF7A5FF00283FF41BA9A3
:109EB000217A606806F0B8FD6068036801211B68BC
:109EC00098476068036802211B689847606806F03D
:109ED00013FE002120702046FEF78CFF0546002867
:109EE0003FF401A9217A606806F09EFD606803686E
:109EF00001211B68984760680368E8211B68984740
:109F0000606806F0F9FD2070FFF7EEB8217A60680E
:109F100006F08AFD6068036889211B6898476068BD
:109F200006F0EAFD0122217A2070606806F03CFD0F
:109F3000606803681B699847217A0546606806F0E7
:109F400073FD6068036889211B689847606803682F
:109F500045F001011B68C9B29847606806F0CCFD66
:109F60002070FEF7CFBF00BF0146014800F0FCBAE9
:109F7000E464002038B5064B1D783DB1002420462E
:109F8000013400F06BFEE0B28542F9D838BD00BF65
:109F9000E0640020007EFF280AD010B500F0F8FD34
:109FA000044608B1204610BD0AF0D8F8204610BD7E
:109FB00000207047007EFF280ED000B583B00DF161
:109FC000070100F041FE20B19DF8070003B05DF8E5
:109FD00004FB4FF0FF30F9E74FF0FF30704700BF50
:109FE000007EFF280FD000B583B001220DF10701DC
:109FF00000F0DAFD20B19DF8070003B05DF804FB26
:10A000004FF0FF30F9E74FF0FF307047007EFF2838
:10A0100001D000F023BE7047007EFF2801D000F081
:10A020008BBE0020704700BFF8B50646007EFF28B3
:10A030001CD017465AB10D46144600F085FD29463E
:10A04000224680B1307E00F053FE241A01D13846FA
:10A05000F8BD05440AF082F8307E00F075FD29460F
:10A0600022460028EED13F1B3846F1E70020F8BD1C
:10A07000002A00F093802DE9F041494991F81C71C4
:10A0800091F81D6191F81E8192B01D46B81C08F12F
:10A0900001031446B21C81F81C0181F81D2181F8CE
:10A0A0001E3101A8422200210AF03CFF412D71D946
:10A0B0007B1CDBB28DF81E308DF827308DF83130E7
:10A0C00040F608320223ADF804208DF807308DF8F1
:10A0D00012308DF833308DF83B3040F2022240F2DE
:10A0E0000943ADF80820ADF80C3040F201224FF4DE
:10A0F000A063ADF81020ADF814302422294B8DF860
:10A1000016200693012204238DF81C208DF81F30A1
:10A110008DF83030244D089540F2075340F2246208
:10A12000ADF82420ADF82830ADF8383003250823E9
:10A1300040F601128DF82B508DF82C30ADF82E2002
:10A1400020460A25741C402307228DF834508DF8D0
:10A150003C308DF83F2044F2020301A966F07F06EF
:10A1600064F07F04052542228DF806708DF80E708C
:10A170008DF826708DF83A808DF82A608DF8405061
:10A180008DF84140ADF842300AF0A4FE422012B0F2
:10A19000BDE8F081002012B0BDE8F0814220704798
:10A1A000E4640020200105242402060570B503683C
:10A1B000184A5B6882B093428DF8071021D105469A
:10A1C000007EFF2823D000F0BFFC0DF1070601241C
:10A1D0003146224688B1287E00F08AFD241A02D139
:10A1E000012002B070BD064409F0B8FF287E00F0DF
:10A1F000ABFC314622460028EDD1C4F1010002B08B
:10A2000070BD01220DF10701984702B070BD00201A
:10A2100002B070BD29A00200002A00F093802DE951
:10A22000F041494991F81C7191F81D6191F81E8126
:10A2300092B01D46B81C08F101031446B21C81F807
:10A240001C0181F81D2181F81E3101A84222002144
:10A250000AF068FE412D71D97B1CDBB28DF81E30EF
:10A260008DF827308DF8313040F608320223ADF8F2
:10A2700004208DF807308DF812308DF833308DF8CA
:10A280003B3040F2022240F20943ADF80820ADF81D
:10A290000C3040F201224FF4A063ADF81020ADF86D
:10A2A00014302422294B8DF8162006930122042312
:10A2B0008DF81C208DF81F308DF83030244D089516
:10A2C00040F2075340F22462ADF82420ADF8283064
:10A2D000ADF838300325082340F601128DF82B50D5
:10A2E0008DF82C30ADF82E2020460A25741C402312
:10A2F00007228DF834508DF83C308DF83F2044F221
:10A30000020301A966F07F0664F07F04052542225E
:10A310008DF806708DF80E708DF826708DF83A80E5
:10A320008DF82A608DF840508DF84140ADF84230EC
:10A330000AF0D0FD422012B0BDE8F081002012B03A
:10A34000BDE8F08142207047E4640020200105242C
:10A3500024020605037EFF2B02D1074B1A7802B1B7
:10A360007047064902764161012200F1100104485C
:10A370001A7000F0DBB800BFE064002094750300A1
:10A38000E4640020007EFF280ED000B583B000F00A
:10A39000DBFB10B103B05DF804FB019009F0DEFEB9
:10A3A000019803B05DF804FB0020704701B900B1CB
:10A3B000704700B583B0694600F0DCFB009BB3F545
:10A3C000966F02D003B05DF804FB00F05FFBF9E785
:10A3D00030B4084B084AFF2002F108054FF47A74A4
:10A3E0000021303218761D609C601A6130BC5960C3
:10A3F00059617047C4640020A47503000378002BE2
:10A4000000F09280F0B50546002004462E4603E099
:10A4100001342B5D2E19C3B103F14002D2B2012ADF
:10A42000F6D9F42BF4D81A0610D40122A3F5584615
:10A43000B6F5006FECD31444202806D021F8103074
:10A440002B5D01302E19002BE6D1F0BD03F0E002A8
:10A45000C02A52D003F0F002E02A61D003F0F802E3
:10A46000F02AD5D103F007030427727802F0C00C5C
:10A47000BCF1800FCCD196F802C00CF0C00E02F0F7
:10A480003F02BEF1800F42EA8313C1D10CF03F0CB2
:10A49000032F4CEA83132AD0F27802F0C006802EF4
:10A4A000B6D102F03F0242EA8313A3F58032B2F53F
:10A4B000801F38BF0427ABD2A3F55842B2F5006F16
:10A4C000A6D3B3F5803F3C44B6D31E28BDDCA3F52C
:10A4D000803342009E0A0A44C3F30903A6F52056BE
:10A4E000A3F5105321F810605380023091E7A3F5D3
:10A4F0000062B2F5784FDFD38AE7727802F0C006C7
:10A50000802E03F01F0383D102F03F0242EA83133F
:10A51000A3F18002B2F5F06FBFF47AAF022285E7B3
:10A5200003F00F030327A0E71846704770B50446F1
:10A530000E68B4F81821B4F81A31656936689B1AA8
:10A5400008469BB294F81C112A44B04758B1B4F89D
:10A550001831626903449BB2A4F81831538094F80F
:10A560001C311371012070BD2DE9F043264DDFF839
:10A57000A890AC4604468846BCE80F0089B003AFFB
:10A580000FC703AE0FCE05F1140E25460FC59EE88A
:10A590000700DCF800303B806B4636682E8003C332
:10A5A0006B4603CB012504F118034FF480766361F9
:10A5B000A061E16184F8202004F59870C4F8189136
:10A5C0002022A4F81C61002184F81E510AF0AAFC84
:10A5D0000E4E0F48A571042240F2EF2340F20947C6
:10A5E0000021C4E94A0184F85021A3804FF4E131ED
:10A5F000C4E948760748FFF7ADFE404600F034FA5C
:10A60000284609B0BDE8F08304760300D87503003E
:10A61000E0750300C4640020090000012DE9F04743
:10A62000D0F82C0188B00E4630B10231FFF7E6FEBB
:10A63000C0B208B0BDE8F087684600F029FA864647
:10A64000F8B1431E06F10409DBB2114DE84609EBEF
:10A65000830904AC95E80F0018F8017B84E80F002B
:10A6600007F00F0C0DF1200AD4440AEB17171CF861
:10A6700010CC17F8103CA6F804C073800436B1451E
:10A68000E8D14FEA4E00C0B208B0BDE8F08700BF85
:10A69000F075030000487047E4640020014B5869DE
:10A6A000704700BFE464002010B5B0B103281CD08F
:10A6B000154C94F85031834223D9483004F5AA71DF
:10A6C00054F82000FFF79AFEC3B201335B0043F455
:10A6D00040730E48A4F8523110BD0B4CD4F8203111
:10A6E000A4F854314FF44173F3E70849A1F5A97474
:10A6F0002046FFF793FF431C5B0043F440739BB27B
:10A70000E7E7002010BD00BFE464002036660020AB
:10A7100010B5134C236882B003B3186851B906F022
:10A7200011F8236893F90400012102B0BDE810403C
:10A7300009F03CBF0B4B00934FF48073ADF804302D
:10A7400002AB13E9060005F09BFF236893F90400B0
:10A75000002102B0BDE8104009F028BF02B010BDD2
:10A760007866002080BA8C010448006828B108B5DA
:10A77000006805F0EDFF012008BD704778660020F5
:10A78000084B1B6863B119B1074B40221A60704730
:10A79000054B4022C3F88020BFF34F8FBFF36F8F6C
:10A7A000704700BF7866002000E100E0024B53F8DC
:10A7B000200000B1C06870477C66002030B4094CAE
:10A7C000BDF8085054F8204044B1246934B108461B
:10A7D000A44611461A462B4630BC6047002030BCC8
:10A7E000704700BF7C66002030B4084CBDF80850AC
:10A7F00054F8204044B1646934B10846A446114677
:10A800001A462B4630BC604730BC70477C6600203F
:10A8100000207047024B186808B190F8600070473C
:10A82000846600202DE9F843234C2568002D40D094
:10A830001E462C2303FB00530446D3F82090884681
:10A840001746B9F1000F30D048460AF0B5FF082886
:10A85000024628BF08222C2000FB0454D4E90954E6
:10A86000DFF85CC0154B002D08BF654649464046E1
:10A87000002C08BF1C460AF02DFB28460AF09CFF5E
:10A8800010280246294628BF102238460AF022FB2B
:10A8900020460AF091FF042802462146304628BF90
:10A8A0000422BDE8F8430AF015BBDFF8189008222F
:10A8B000D1E7BDE8F88300BF84660020407603003E
:10A8C000307603002476030070B5104E3368CBB1A8
:10A8D0002C2404FB0034054662691AB190473368A2
:10A8E00084F832002C2202FB053393F832400CB17D
:10A8F000204670BD284623463A22022101F080F806
:10A90000204670BD1C46204670BD00BF84660020F6
:10A91000074B1B6853B110B42C2404FB0030C46AED
:10A92000038E0C605DF8044B13807047704700BFC6
:10A930008466002008B520220023052101F060F87C
:10A940004FF0FF3008BD00BF30B4084C256855B14A
:10A950000446084611461A462C2303FB0454E369B7
:10A960000BB130BC1847012030BC70478466002012
:10A9700030B4094C029A25684DB104460846194680
:10A980002C2303FB0454A3680BB130BC18474FF0D1
:10A99000FF3030BC704700BF8466002030B4094CE3
:10A9A000029A25684DB10446084619462C2303FB3C
:10A9B0000454E3680BB130BC18474FF0FF3030BC93
:10A9C000704700BF84660020044B1B682BB12C220B
:10A9D00002FB0030036903B118477047846600200A
:10A9E000054B1B682BB12C2202FB0030836903B19D
:10A9F00018470120704700BF8466002005F064BA44
:10AA000000B5154B83B0402283F8272301A9012309
:10AA10000020ADF8043002F071FF4FF080430024B5
:10AA2000D3F838548DF80040684609F0DBF80B4B3A
:10AA3000019301A809F002F909F00CF9EB0707D41A
:10AA400000214FF0FF3002F0E9FFFFF793FAF7E73C
:10AA5000204605F039FAF3E700E100E0FDA9020025
:10AA6000002004F097BE00BF00B5002383B003228E
:10AA7000CDE9002303490448C82207F0D3FD03B001
:10AA80005DF804FB4476030001AA020009F002BD50
:10AA90004FF08052536E1BBA0360136E1BBA4360B3
:10AAA00008207047004870474C76030070B51E4D73
:10AAB0002B6883B1012913D11478C4F34114012CFC
:10AAC0000BD0022C07D15478012C0BD0022C07D1CB
:10AAD0009388072B20D0002070BD517822290BD0FD
:10AAE000012070BD9C69002CF5D0237811462246C8
:10AAF000BDE8704003F0A0BE5188003918BF0121A5
:10AB00005975114603F07EFE2A68D369002BE7D001
:10AB1000507D9847204670BD044C1146238922463B
:10AB2000BDE8704003F088BE8866002014600020F5
:10AB3000704700BF704700BF704700BF704700BF3D
:10AB4000704700BF704700BF10B5044602F0BEFE5C
:10AB500008B9002010BD02F0C1FE0028F9D1044858
:10AB60004FF4367303FB0400407900F0010010BD80
:10AB70000C670020054B4FF4367202FB00339868D7
:10AB800008609A899B7B8B718A8070470C670020D4
:10AB900008B5044B4FF4367202FB0030103002F05F
:10ABA00077FC08BD0C6700202DE9F0474FF43674A0
:10ABB00004FB00F4DFF88C804FF6FF73064604F1C7
:10ABC00010054FF6FE70824288BF1A46454492B285
:10ABD000284602F089FC074602F078FE10B9384694
:10ABE000BDE8F08702F07AFE82460028F7D108EB34
:10ABF000040999F80330002BF1D0284602F062FCDA
:10AC00003F28ECD999F8031018F8040003F048FD28
:10AC10000028E4D0284602F055FC3F2809D9084A0C
:10AC200099F80310504602EBC612402303F058FD7A
:10AC3000D5E799F8031018F8040003F041FDCEE7BA
:10AC40008C6600200C670020034B4FF4367202FB29
:10AC50000030103002F0B6BC0C6700202DE9F04146
:10AC6000064602F033FE10B90020BDE8F08102F084
:10AC700035FE0028F8D14FF436751A4F05FB06F55E
:10AC800005F124043C44204602F002FC0028EBD0ED
:10AC900007EB0508785D98F8021003F001FD002825
:10ACA000E2D01149402202EBC6160E44204631463E
:10ACB00002F01AFC044668B198F80210785D32463A
:10ACC000234603F00DFD50B9084B1B68DB07CBD5BD
:10ACD00000BECAE798F80210785D03F0F1FC204648
:10ACE000C3E700BF0C6700208C660020F0ED00E099
:10ACF00038B5104B4FF4367404FB003405464FF65C
:10AD0000FF734FF6FE70824288BF1A46243492B217
:10AD1000204602F091FC034620461C4602F0B8FB98
:10AD20003F2801D8204638BD2846FFF797FF204628
:10AD300038BD00BF0C67002008B5044B4FF43672D5
:10AD400002FB0030243002F0BDFB08BD0C67002080
:10AD500070B5214C82B000214FF4367220460E4669
:10AD60000AF0E0F8FF234FF4E132082504F138013E
:10AD7000A371A26001234FF48072009604F11000C9
:10AD8000A573A68102F04CFB144B1B78C3F3800320
:10AD9000009304F59C7101234FF4807204F12400A8
:10ADA00002F03EFB04F50E71012006F005FF04F5EC
:10ADB00022710546012006F0FFFE05B130B9084BAF
:10ADC0001B68DB0700D500BE02B070BDC4E9076593
:10ADD000C4E90C0602B070BD0C670020C8600020FA
:10ADE000F0ED00E038B5094C206A256B20B107F082
:10ADF0007BFA0023C4E907332DB1284607F074FA23
:10AE00000023C4E90C33012038BD00BF0C670020CB
:10AE100010B50E4C0E482378002202608280DA07BB
:10AE200009D59B070DD521780A48BDE81040C1F32C
:10AE3000800102F0C3BC103002F0A0FC23789B0715
:10AE4000F1D4044802F09AFCEDE700BFC86000208E
:10AE50000C670020306700202DE9F0414B79022B70
:10AE600082B002D18B79022B04D00025284602B093
:10AE7000BDE8F081384FBB782BB1384B1B68DB073E
:10AE8000F3D500BEF1E78B787B7038700C780C44FA
:10AE90000646617824294FF009050BD1082A02D80B
:10AEA0000FE0AA420DD323781C442B446178242957
:10AEB0009DB2F6D0052927D0042902D163790A2B47
:10AEC00030D002F003FD0028D0D002F007FD044688
:10AED0000028CBD1FB78002BC8D0214802F0F2FA31
:10AEE0003F28C3D9F978387803F0DAFB0028BDD0C1
:10AEF0001B4802F0E7FA3F28F97828D9194A20467A
:10AF0000402303F0EDFBB1E72146304603F0A4FBFC
:10AF10000028B2D0A3783B7123781C442B4461787D
:10AF20009DB2C9E7104A94F80080019202230132D1
:10AF30000092304604EB08011A4603F0FBFA0028A1
:10AF40009BD005F10E0318FA83F39DB2B9E7387868
:10AF500003F0B6FB8AE700BF0C670020F0ED00E0CD
:10AF60001C6700208C6600200E670020137803F019
:10AF70006003202B09D130B5294C938865789D4218
:10AF800083B004D0002003B030BD00207047537858
:10AF9000203B032BF6D8DFE803F02D280C02012913
:10AFA00032D0032923D100205188FFF7CBFD0120A7
:10AFB000E9E7012928D0032919D11A4B52881978B9
:10AFC000627111F0040102F0010418BF84F0010164
:10AFD000C2F340021448019202F0F0FB0020019AF3
:10AFE0002146FFF7E3F90120CDE7012911D0012027
:10AFF00003B030BD01290CD00329F8D100200B4942
:10B00000FFF79EFD0120BEE7114603F0FBFB012088
:10B01000B9E711460723054A03F00EFC0120B2E709
:10B020000C670020C86000203067002014670020F3
:10B030002DE9F047624DEA788A420C4680461F4669
:10B0400045D0AB788B4222D10020FFF775FD02F08E
:10B050003DFC002862D15B4802F01AFA00282DD18D
:10B06000002F2BD017F03F0728D1A978404603F0D6
:10B0700017FB18B3A97840463B463A4603F030FB2D
:10B08000E0B9514B1B68DA071ED500BE08E02B79EA
:10B090008B4213D04C4B1B68DB0715D500BE00203C
:10B0A000BDE8F087494802F003FA00287BD002F09F
:10B0B0000DFC002857D1AB789C42C5D02B79A34218
:10B0C00026D00120BDE8F0870020BDE8F087404E83
:10B0D0009AB2314605F1100002F0AEFAAB79FF2BBF
:10B0E000E0D0002FDED006EB070A05F1100902E0E0
:10B0F000B245D7D0AB7916F8012B9A42F8D1484621
:10B1000002F0D6F90028F3D1A979FFF713FDEFE794
:10B110000020FFF713FD0120BDE8F08702F0DEFB01
:10B12000002898D1274802F0B3F9002893D0A978D5
:10B13000287803F0B5FA00288DD02649214840220E
:10B1400002F0D2F90346002830D0224AA9782878A4
:10B1500003F0C6FA0028B1D11B4B1B68D9077FF555
:10B160007AAF00BE77E702F0B9FB06460028A2D10D
:10B17000EB78002B9FD0154802F0A4F93F289AD90C
:10B18000E978287803F08CFA002894D00F4802F070
:10B1900099F93F280FD940230D4AE978304603F04A
:10B1A0009FFAAB7888E7FFF7C3FC80E7A978287897
:10B1B00003F086FA4FE7E978287803F081FA7AE716
:10B1C0000C67002030670020F0ED00E01C670020D5
:10B1D0008C660020CC660020704700BF01207047BD
:10B1E000704700BF704700BF044B0022C3E9002234
:10B1F000C3E90222C3E90422704700BF646B002048
:10B2000001207047044B0022C3E90022C3E9022257
:10B21000C3E90422704700BF646B00202DE9F041B0
:10B220004B79032B82B012D106460879C0EBC005DA
:10B230001235ADB295420C4605D8254F7A78002AD2
:10B2400042D07A7B52B1234B1B68DA0704D4002525
:10B25000284602B0BDE8F08100BEF8E70C374FF495
:10B26000A0782278A31859782129ECD1BB60A15C81
:10B2700007F1010E07F1020C19440246CDE900CE98
:10B280000323304603F056F90028DCD0A379B978BF
:10B29000012B04BFE379FB700123BB71A278BB686B
:10B2A0003A70B3F80730BB800029D1D00A4A304643
:10B2B0004244402303F014FA0028C9D1054B1B680F
:10B2C000DB07C5D500BEC3E74FF08008C9E700BF64
:10B2D000646B0020F0ED00E0E4690020137803F0D7
:10B2E0001F0CBCF1010F13D12DE9F0410C4685492B
:10B2F000978815460A78FFB2BA4282B0064609D04E
:10B300000A7BBA4200F0CF80002002B0BDE8F08195
:10B31000002070470027B846BC460720062213F0DD
:10B32000600306D1012C00F0A280012002B0BDE82C
:10B33000F081202BE8D16B78013B0A2BE4D80FF287
:10B34000080E5EF823F000BF1FB4020017B402001D
:10B3500003B4020009B3020009B3020009B30200FA
:10B3600009B3020009B30200C3B3020099B302009B
:10B3700075B30200012C1ED0032CD6D14FEA48032E
:10B380006A88434401EB8303D2B2604611469A7146
:10B39000FFF722FF0120B8E7012CC6D14FEA48038E
:10B3A0006A88434401EB8303110A6046D971FFF7B1
:10B3B00015FF0028A8D02946304603F023FA0120C3
:10B3C000A3E7012C00F08680032CAED1EC886988BD
:10B3D0004D4B402C4FEA1122204628BF402011F04F
:10B3E000FF013B4407D0012C05D91C788C4202D1C7
:10B3F000013880B2013300906046FFF7F5F9012073
:10B4000083E7012C91D10A4429463046234603F0B4
:10B4100013FA204679E7012C87D10A18F4E7012CAA
:10B4200083D1B5F806E06B883749704640280F4451
:10B4300028BF402013F0FF014FEA13223B465CD0A7
:10B44000BEF1010F5BD9013803F8011B80B20090F7
:10B450006046FFF7B3F923189BB2002B46D12B4A65
:10B460001268D2077FF550AF00BE18464DE76B78E3
:10B47000062B7FF449AF6B881B0A212B18D0222B97
:10B480007FF442AF6046FFF791F91E494FEA480347
:10B49000434401EB830302469B882946304603F070
:10B4A000CBF9204631E7C02713201222E04636E7C9
:10B4B0004FEA4803984401EB8808D8F80820002A8E
:10B4C0003FF422AF13782946304602B0BDE8F04180
:10B4D00003F0B2B9EB88402B3FF616AF0A4A294673
:10B4E00030463A4403F0A8F920460EE73A4629468A
:10B4F000304603F0A1F9012007E70C46A7E7002436
:10B50000A5E700BF646B0020E4690020F0ED00E0D7
:10B51000F0B5304EB4788C4283B0054611D07078C7
:10B5200088422DD0B07B884247D0707B88424CD077
:10B53000294B1B68DA0702D4002003B0F0BD00BE1F
:10B54000FAE7777880244FF0400C0020B9421AD0F7
:10B5500012BB22499BB20C4400931146234602229F
:10B56000FFF742F9B17822462846402303F0B8F8A5
:10B570000028E2D1184B1B68DB07DDD500BEDCE7F5
:10B580004FF0400C00207AB914499AB26144FFF799
:10B5900027FE012003B0F0BD104A14449BB222469E
:10B5A0000221FFF71FFEDDE70C4A9BB26244012136
:10B5B000FFF718FE012003B0F0BD777B4FF4A074B5
:10B5C0000C364FF4807C0120C0E74FF4807C0120D2
:10B5D000D9E700BF646B0020F0ED00E0E4690020D3
:10B5E000704700BF70B51A4C82B000210D464FF471
:10B5F000EC72204609F096FC04F138010123802208
:10B6000004F11000009501F00BFF04F1B8010123D3
:10B610008022009504F1240001F002FF04F59C71E2
:10B62000012006F0C9FA04F5C4710646012006F0AF
:10B63000C3FA30B9074B1B68DB0700D500BE02B068
:10B6400070BDC4E90756C4E90C0502B070BD00BF67
:10B65000FC6B0020F0ED00E038B5094C206A256B4A
:10B6600020B106F041FE0023C4E907332DB128467E
:10B6700006F03AFE0023C4E90C33012038BD00BFB8
:10B68000FC6B002010B5084C002304F11000C4E945
:10B690000033C4E9023302F071F804F12400BDE87C
:10B6A000104002F06BB800BFFC6B00202DE9F047A2
:10B6B0004B79012B03D000242046BDE8F0878B791D
:10B6C000012B0D468046924618D049780429F2D1C4
:10B6D0000024032BEFD1E8790028ECD1DFF8F090BB
:10B6E00099F8011099F8023051EA030722D0354B3E
:10B6F0001B68DB07DFD500BE0446DDE7CB79002BF6
:10B70000D9D10B781D449CB2697824290BD194427D
:10B7100002D9D0E7A245CED32B781D4423446978C3
:10B7200024299CB2F6D00429C5D16B79012BC2D152
:10B73000AB79CEE7AB7889F800302E78287934449D
:10B74000A4B22E4430B920E0337887421C44A4B21E
:10B750001E441AD2A24518D37378052BF4D1314672
:10B76000404602F079FF0028C1D0B3782879DA0981
:10B7700014BF89F8013089F8023096F800C07B1CAC
:10B780006444DFB2A4B26644DEE70F4801F09AFEDB
:10B790003F2891D999F80210002002F081FF00287B
:10B7A0008AD0094801F08EFE3F2899F8021005D989
:10B7B000064A4023002002F093FF7DE7002002F0BC
:10B7C0007FFF79E7F0ED00E00C6C0020BC6B0020FF
:10B7D000FC6B002000207047F8B53C4DAC788C42E3
:10B7E0001E4625D13A499AB205F1100001F024FF16
:10B7F0000020FFF7F5FE05F1100001F063FE3F2881
:10B8000002D801242046F8BDA978002002F048FFA4
:10B8100004460028F5D005F1100001F053FE3F2842
:10B82000A9784AD92A4A4023002002F059FFE9E7C3
:10B830006B788B4208D0274B1C6814F00104E1D0D0
:10B8400000BE00242046F8BD074605F1240001F0A3
:10B850001FFEB8B9204801F01BFE0028D1D1002EF0
:10B86000CFD016F03F06CCD16978384602F018FFE9
:10B8700004460028C5D0697838463346324602F07F
:10B880002FFFBFE76978002002F00AFF0028E1D00F
:10B890001249402205F1240001F026FE034680B142
:10B8A0000E4A6978002002F01BFF0028A9D1094B3D
:10B8B0001B68DB07CED500BECCE7002002F000FFFE
:10B8C000A0E7697802F0FCFEC4E700BFFC6B002033
:10B8D000BC6B0020F0ED00E0206C00207C6B0020B1
:10B8E00038B5184CE57F94F82E10284602F056FF24
:10B8F000C8B9A368626B934202D9217BC9091AD1E6
:10B900009B1A114AA3620FCA104D07C52A4694F824
:10B910002E1002F80C390325E07F84F838500D23EF
:10B9200002F0DEFE08B1012038BD094B1B68DB07C1
:10B93000FAD500BE38BD284694F82E1002F010FF4C
:10B940000120F1E7D46F0020F46F0020D46D0020B7
:10B95000F0ED00E010B5214A011ED47F84B004DC74
:10B960004B1C22D081B104B010BD8BB2204692F89E
:10B970002E101B4A02F0B4FE0028F4D1194B1B68AC
:10B98000DA07F0D500BEEEE792F82E308DF80830D9
:10B9900001A807238DF8044003918DF809108DF854
:10B9A000053002F05BFC04B010BD9168536B0E488B
:10B9B0009063CB1A0120936282F82C000029D2D028
:10B9C000002BD0D0137BDB0914BF92F82E1092F815
:10B9D0002F10204602F0C4FEC5E700BFD46F002040
:10B9E000D46D0020F0ED00E002023A000020704724
:10B9F000704700BF704700BF01207047122070479A
:10BA0000044880F8391080F83A2080F83B30012053
:10BA1000704700BFD46F002002484022002109F087
:10BA200081BA00BFD46F002002484022002109F0F3
:10BA300079BA00BFD46F002030B54C79082C83B0A0
:10BA400002D18C79062C02D0002003B030BDCC7915
:10BA5000502CF9D1162A05D8184B1B68D907F3D5F5
:10BA600000BEF1E7164C8A7884F82D20E0770B7839
:10BA700004F12F0204F12E0519440223CDE900251B
:10BA80001A4602F057FD28B90C4B1B68DA07DBD5C4
:10BA900000BEDAE700250B4A94F82F10E07F84F807
:10BAA00038501F2302F01CFE08B11720CDE7034BCE
:10BAB0001B68DB07F9D500BE1720C6E7F0ED00E0F4
:10BAC000D46F0020D46D0020012901D001207047DF
:10BAD00070B5137803F07F01022984B0054610D0B9
:10BAE00003F06003202B09D15378FE2B27D0FF2BC6
:10BAF00004D1538813B9D388002B38D0002004B068
:10BB000070BD5478012CEBD15388002BF6D1374E01
:10BB1000938896F83820042AD9B24FD096F82E4050
:10BB20008C422DD096F82F408C4205D122B9214667
:10BB300002F008FE002845D0012004B070BD5388F3
:10BB4000002BDBD1D488012CD8D10192FEF762FE04
:10BB50000028D3D0019A461E1146284623460DF1EF
:10BB60000F028DF80F6002F067FE2046C7E71F4CFA
:10BB70001146C4E90C332846A36302F043FEDBE719
:10BB8000022AD9D1726BB368194D9B1AB36206F1C0
:10BB900020030FCB07C52A46F07F02F80C39032398
:10BBA00086F8383021460D2302F09AFD0028C3D1D3
:10BBB000104B1B68DB07A1D500BEA0E702F0D0FD4B
:10BBC00020469CE72146284602F0E8FD0028B3D134
:10BBD0000024074A96F82F10F07F86F838401F237C
:10BBE00002F07EFD0028A7D1E2E700BFD46F00205D
:10BBF000D46D0020F0ED00E02DE9F043B34C94F853
:10BC00003850012D8BB01E467BD0032D0F4658D0E7
:10BC100035B1022D00F08B8001200BB0BDE8F08320
:10BC200094F82F308B42F7D11F2E804640F093803E
:10BC3000DFF8A492A64BD9F800209A4240F08B80FE
:10BC4000CC46BCE80F0026460FC69CE80F0007C68E
:10BC500026F8023B1B0C3370D4E90102E37B9D4EB6
:10BC6000A5620121282B84F82C5065636062226351
:10BC7000266284F8381000F0AB802A2B00F0918205
:10BC8000002A00F05981217BC90940F05581B2F5A5
:10BC9000007F40F2128394F83930A262012102221F
:10BCA000E07F84F82C1084F8382023B90522202363
:10BCB00084F839206387394602F052FD94F83850F1
:10BCC000A7E794F82E308B42A6D10D2EA4D1E37BAA
:10BCD000282B00F05E822A2B00F05F82607B04F14B
:10BCE0000F01FFF787FE00257B4A94F82F10E07FB5
:10BCF00084F838501F2302F0F3FCE8B194F8385070
:10BD000087E7B3F5007F1DD8E37B282B32D02A2BA1
:10BD100000F09E80636B227B3344D209636300F0A2
:10BD20008B80226B9A427ED8022384F83830FFF74A
:10BD3000D7FD00287FF470AF684B1B68DB0706D582
:10BD400000BE6AE7654B1B68DE0700D500BE002019
:10BD50000BB0BDE8F083042394F82E1084F838303B
:10BD6000404602F0FDFC404694F82F1002F0F8FC2B
:10BD7000002052E7D4E90C23334493426363D3D2C7
:10BD8000E28AA06852BA92B212B1B0FBF2F292B259
:10BD9000C01AD4F81110B3FBF2F5B0F5007F28BF3C
:10BDA0004FF4007009BA02FB1532009029444A4B47
:10BDB000607B012584F83C50FEF7DAFD851C9DD0A0
:10BDC000002384F83C30FFF7C5FD94F8385020E795
:10BDD000E18A49BA89B2002A00F08280207BC50935
:10BDE00000F09380002900F01B828A42C0F0A182FB
:10BDF000282B00F06C82607BFEF7F2FD002800F03B
:10BE00008A82A368656B344A94F82F10E07F5B1B2D
:10BE1000B3F5007F28BF4FF400739BB202F060FCC3
:10BE200000287FF46BAF2D4B1B68DA077FF566AFF8
:10BE300000BE94F83850ECE6238E274A607B04F16C
:10BE40000F01FEF777FD0028C0F2C881636B68E739
:10BE5000E08A40BA80B218B1A368B3FBF0F080B2B8
:10BE6000D4F81110676B1C4DB7FBF0F209BA1144FE
:10BE7000009600FB12722B46607B012784F83C7011
:10BE8000FEF78CFD811C3FF439AF0023984284F803
:10BE90003C30C0F2DB81864240F2F081361A002845
:10BEA00040F0498294F82F50E27F8DF8185000211D
:10BEB000072305A807968DF819108DF814208DF822
:10BEC000153002F0CBF994F83850A2E6D46F002078
:10BED0005553424355534253D46D0020F0ED00E0DA
:10BEE00000293FF421AF94F839200223002184F87F
:10BEF0002C3084F83830A162002A7FF418AF052274
:10BF0000202384F83920638711E794F83910E07F03
:10BF1000A262022384F82C3084F8383000297FF4A0
:10BF2000CAAE0522202384F839206387257BED09DA
:10BF3000002D3FF4C0AE4AE1657B252B3CD8DFE8FD
:10BF400013F021013B003B00F3003B003B003B00B2
:10BF50003B003B003B003B003B003B003B003B0009
:10BF60003B003B003B0026003B003B003B003B000E
:10BF70003B003B003B008F00C3003B003B009D00AB
:10BF80003B003B003B003B00D0003B006C00242208
:10BF90000021B64808F0C6FFB54BC9F80030B349D8
:10BFA0001F234FF40072284689F80430FFF71EFD66
:10BFB000002800F0CF8140DA94F83930002B6CD1A2
:10BFC000238EAA4AAB49607BFEF7B4FC002864DBF1
:10BFD00098BBA368002B3FF4A7AE616B94F839209F
:10BFE000E07F5B1A01250221A36284F82C5084F8BB
:10BFF000381022B90521202284F839106287002BDD
:10C000003FF495AE237BDB0940F0E18094F82F10DC
:10C0100002F0A6FB94F83850FBE5284604AA05A9CF
:10C02000FEF776FC059B83B3BDF810206AB3013B95
:10C030001BBA12BAC9E900320820A568002D40F0E9
:10C040005B81636B94F839205B4201200221A3627B
:10C0500084F82C0084F83810002A7FF468AE4EE78C
:10C060002846FEF7BDFC80F00103DBB2DB0543F0A0
:10C0700003030593C9F800300420DEE7227DE17C4C
:10C080002846FFF7B9FC0028A3D194F8393023B92A
:10C0900002223A2384F839206387A268636B94F8FC
:10C0A0003910E07F0125D31A84F82C500225A362B1
:10C0B00084F8385021B90525202184F8395061874A
:10C0C000002A3FF434AE9AE7E17C2846C1F34003EE
:10C0D00001F001020909FEF737FC00287FF479AF6F
:10C0E000D3E705AE00230DF10E02284604A97360C4
:10C0F0000593B360FEF70CFC049A002AC5D0BDF886
:10C100000E30002BC1D012BA082106925BBA02226F
:10C11000ADF81E308DF817108DF81C2096E807003A
:10C1200089E807000C2088E7002794F83920608F01
:10C13000ADF82470CDE90577CDE907774FF000031E
:10C1400062F30303F0210A228DF81630ADF82000C7
:10C150008DF814108DF81B2005AE0FCEDFF80CC142
:10C16000ACE80F006146336821F8103928464FF4D7
:10C170000072FFF743FC002884F839706787BFF628
:10C1800027AF1DE72846FEF79FFB00283FF47DAF51
:10C190001FE7607BFFF72CFCA5E5607BFEF714FC36
:10C1A000A1E5E18A49BA89B2002A3FF499AE207B21
:10C1B000C5093FF417AE94F83910E07FA26202235C
:10C1C00084F82C3084F8383000293FF4AAAE94F873
:10C1D0002E1002F0C5FA94F838501AE5A268636B85
:10C1E00094F8396084F82C500220D11A84F8380071
:10C1F000A162E07F26B90526202584F8396065878D
:10C20000002A3FF48EAD00293FF48BAD237BDB0980
:10C2100000F0978094F82E1002F0A2FA636B80E58C
:10C22000012194F8393084F82C100221E07FA262B9
:10C2300084F83810002B7FF47BAE0521202384F88E
:10C2400039106387002A3FF472AD6FE601307FF446
:10C2500055ADA268636B0849E07F84F82C70D31A4F
:10C26000A362A163002A3FF462ADC8E6D46D00204A
:10C2700000800202E36F002002023A00D4E90C239E
:10C28000334493426363BFF44FAD607BFEF7A8FB7A
:10C2900000285BD0626BA36894F82F10E07F9B1A94
:10C2A000B3F5007F28BF4FF400732A469BB202F01B
:10C2B00017FA00287FF422ADB5E593B239462A4A31
:10C2C000404602F00DFA00287FF418AD34E5B2F5CF
:10C2D000007FD4F81110244B607B28BF4FF400720C
:10C2E000009209BA0125002284F83C50FEF740FB79
:10C2F000871C3FF403AD63E5854228BF05461A4A13
:10C3000094F82E102563ABB2404602F0E9F90028FC
:10C310007FF4F4AC10E5A268636B1449A163D31AEF
:10C320000121E07FA36284F82C10002A3FF4FFACC7
:10C3300065E6022175E729183246284608F0D8FD3F
:10C34000B0E594F82F1002F00BFA7FE5A268636B5A
:10C35000064981E7064B2846A3F11002A3F1180114
:10C36000FEF760FA242068E6D46D0020020727005B
:10C37000F46D0020704700BF704700BF70B5134CCC
:10C38000134E84B020464FF4AE72002108F0CAFD6F
:10C390004025002304F58E72CDE90156009219461E
:10C3A0001A4604F1B000039504F012F82E4404F18B
:10C3B00070020023CDE90025CDE90265201D194654
:10C3C000012204F005F804B070BD00BF9470002095
:10C3D0001470002010B5054C04F1B00004F022F8F0
:10C3E000201D04F01FF8012010BD00BF9470002034
:10C3F00038B5074C2046002500F8B85B01F0BEF9BF
:10C4000004F10C0001F0BAF984F8B150657138BD3F
:10C41000947000204B79FF2B01D0002070472DE94C
:10C42000F04FDFF810A10B780E4683469AF80510FE
:10C430009AF8B100B51850EA010283B006EB030484
:10C4400003D0002003B0BDE8F08FB2788AF8002056
:10C45000A54217D9F25CA3189D4213D30AF1B8087C
:10C460000AF1B0070AF10C096278042A0AD00B2AF3
:10C4700008D0052A0BD09D421C4603D91A781344D4
:10C480009D42F1D2A01B80B203B0BDE8F08F2146DF
:10C49000584602F0E1F8002841D0A378DB0905D125
:10C4A0009AF8B1300BB32278A318E4E79AF8053074
:10C4B000002BF8D14846019301F060F9A2788AF880
:10C4C0000520A2889AF804C0019B1849C2F30A0209
:10C4D000A2F50072B2FA82F2520962F3410C1846D8
:10C4E0008AF804C003F0EAFFDDE7404601F046F9B0
:10C4F000A3788AF8B130A3889AF8B020C3F30A036E
:10C50000A3F50073B3FA83F35B0963F34102394681
:10C5100058468AF8B02004F01FF80028C3D1044B15
:10C520001B68DB078DD500BE8CE700BF987000202C
:10C53000F0ED00E09470002030B51D4C94F8B1206F
:10C540008A4283B0054618D1B4F8BC205AB99AB2D1
:10C5500018490020FFF70EFF1749284603F0FCFF9B
:10C56000012003B030BD9AB2D4F8B410019204F1A6
:10C57000B80001F061F8019AEAE762798A4202D0D4
:10C58000002003B030BD99B200200193FFF7F4FE04
:10C59000211D284603F092FF019B08B10120E0E72E
:10C5A0001A46211D284603F049FF0120D9E700BFA4
:10C5B000947000201470002044710020F8B50F68BA
:10C5C0008D883D44AF420E46B9780BD20B468B4264
:10C5D0003C4603D10DE06378042B05D023781C443E
:10C5E000A542F8D80020F8BDAC42FBD2A3788B421C
:10C5F000F4D1E3789A42F1D1A542F3D9237D012BFE
:10C600001FD8237923B3012BECD12378E289617AF7
:10C610001A44194422442144914204D3E2E70B789E
:10C6200019448A42DED94B78052BF8D18A42D9D9F0
:10C6300002F012F860B9084B1B68DB07D2D500BEC8
:10C64000F8BD054B1B68DA07CCD500BE0020CAE751
:10C65000E41BF4800120F8BDF0ED00E0F0B4C488E4
:10C66000002C45D0037867488A7803EB830503EBF9
:10C670004503C05803191D7BAA4239D822B9012DA0
:10C6800000F2A68001228A7001258D60C1F80E504B
:10C690004D7700266FF03F0581F822608D766FF0B0
:10C6A00003066FF06405CE760D77574EC1F81E6015
:10C6B000082581F82350005DB3F80D5005441D4452
:10C6C0000344AB4214D2514F9C78102C0CD827FA5B
:10C6D00004F0C04310F0010006D1DE78B24203D16D
:10C6E00012E0587824280CD0187803449D42F8D8DA
:10C6F000474B1B68DA0702D40020F0BC704700BE2D
:10C70000FAE79D42E0D8F3E79D42F1D0062C06D02F
:10C71000102C04D0042CF0D1012248730A7391F834
:10C7200003C01A7994451BD8BCF1000F05D1012A2A
:10C730004ED84FF0010C81F803C01A781A44AA426F
:10C740000ED2967806F0FD07052F0FD0112E03D1DB
:10C750000CE05678242E3ED0167832449542F8D814
:10C760002B4B1B68DB07C7D500BEC6E7D678B445A0
:10C77000F2D19542F4D0D1F812503DB9062C2DD00B
:10C78000102C2BD0042C32D0C1F812504C6854B964
:10C79000537E012B1CD8D2F81A401BB9D2F81E3098
:10C7A000A34215D14C6042F20F739C42D8D9194A6A
:10C7B0006B1EA2FB042403EB5433640BB3FBF4F3B2
:10C7C0000233B3F5807F28BF4FF48073C1F8163071
:10C7D0000120F0BC70479542B3D8C1E7B2F80530EC
:10C7E000B2F8075005FB03F52D01ED08CCE7B2F8D0
:10C7F0000560B2F807405D7D04FB06F305FB03F519
:10C80000ED08C1E7F07100200301010150100100A3
:10C81000F0ED00E05917B7D12DE9F04F0B78624CDD
:10C8200003EB83050E4603EB45030989E75883B004
:10C830009146804679B13944CB7803F00303012B4C
:10C8400000F09E80738933B13B44DA7802F0030232
:10C85000012A00F09B807488B58800233C44B38192
:10C86000F38133827382B382F382A2783D44AC4277
:10C8700038BF134609D29A4203D10FE06378042BE4
:10C8800007D023781C44A542F8D8002003B0BDE8A7
:10C89000F08FA542F9D9A3789A42F2D1E37899456D
:10C8A000EFD1A542F1D923790193022B0FD8E31BD5
:10C8B000F380B9F1000F10D1737F012B4CD1237895
:10C8C0001C44019B6BB9012003B0BDE8F08F374BCE
:10C8D0001B68DA07D9D500BED7E723781C44019B33
:10C8E00083B306F1080A4FF0000BA54206D8EEE725
:10C8F000042BECD023781C44A542E8D96378052B9F
:10C90000F6D1A542E3D9E37803F00303B9F1000FB0
:10C9100001D0012B19D0022BB7D12146404601F09E
:10C920009BFE002839D0E31B2AF8023B019A2178AC
:10C930000BF101039A420C444FF0010BD5D8B9F129
:10C94000000FC0D002237377BDE7A388B169C3F39A
:10C950000A038B42E1D298E706F11E03494686F8A6
:10C960001D90A6F81890A6F81A901846302208F0E4
:10C97000D9FA01463046FFF771FE00289FD184E7BF
:10C9800000233381897801F017FF5BE70022728171
:10C990009978404601F010FF5DE7044B1B68DB0708
:10C9A0007FF573AF00BE71E7F0710020F0ED00E09D
:10C9B000704700BF0020704700207047044B0548B7
:10C9C0000021C3E900114E22C3F8071008F0AABAEB
:10C9D000F0710020FC72002001207047044B0548D4
:10C9E0000021C3E900114E22C3F8071008F09ABADB
:10C9F000F0710020FC7200202DE9F84F4B790E2BCE
:10CA000003D18B79012B0E4603D000273846BDE8B1
:10CA1000F88FCB79012BF8D1DFF834911446D9F88F
:10CA200000202AB1484B1B68DB07EED500BEECE7BF
:10CA300049468046C9F80060A9F80440FFF7BEFDEA
:10CA40000028E2D0B9F80620D9F80030B1781344B4
:10CA50003444A64293F814A0334605D308E05A782C
:10CA6000042A3DD00B2A3BD01A7813449C42F6D8B6
:10CA7000BAF1000F65D03549DFF8D8E048884FF0AB
:10CA8000000C6246E3460028CCD19D1B0EF8010B3A
:10CA90000870A8B248809C429F784A7005D84DE043
:10CAA0005A78042A16D00B2A14D01A7813449C42C0
:10CAB000F6D89A1B97B28F8081F81DB0BCF1000F99
:10CAC00014D00CF1010C5FFA8CF29245DBD8A9F876
:10CAD00004709BE79C42ECD99A78BA42E5D0E8E72B
